{
  "contractName": "Vote",
  "abi": [
    {
      "inputs": [],
      "stateMutability": "nonpayable",
      "type": "constructor"
    },
    {
      "anonymous": false,
      "inputs": [
        {
          "indexed": true,
          "internalType": "uint256",
          "name": "id",
          "type": "uint256"
        }
      ],
      "name": "voterEvent",
      "type": "event"
    },
    {
      "inputs": [
        {
          "internalType": "uint256",
          "name": "",
          "type": "uint256"
        }
      ],
      "name": "candidateLookup",
      "outputs": [
        {
          "internalType": "uint256",
          "name": "id",
          "type": "uint256"
        },
        {
          "internalType": "string",
          "name": "name",
          "type": "string"
        },
        {
          "internalType": "uint256",
          "name": "voteCount",
          "type": "uint256"
        }
      ],
      "stateMutability": "view",
      "type": "function",
      "constant": true
    },
    {
      "inputs": [],
      "name": "candidatesCount",
      "outputs": [
        {
          "internalType": "uint256",
          "name": "",
          "type": "uint256"
        }
      ],
      "stateMutability": "view",
      "type": "function",
      "constant": true
    },
    {
      "inputs": [
        {
          "internalType": "address",
          "name": "",
          "type": "address"
        }
      ],
      "name": "voters",
      "outputs": [
        {
          "internalType": "bool",
          "name": "",
          "type": "bool"
        }
      ],
      "stateMutability": "view",
      "type": "function",
      "constant": true
    },
    {
      "inputs": [],
      "name": "getCandidates",
      "outputs": [
        {
          "internalType": "string[]",
          "name": "",
          "type": "string[]"
        },
        {
          "internalType": "uint256[]",
          "name": "",
          "type": "uint256[]"
        }
      ],
      "stateMutability": "view",
      "type": "function",
      "constant": true
    },
    {
      "inputs": [
        {
          "internalType": "uint256",
          "name": "_candidateId",
          "type": "uint256"
        }
      ],
      "name": "vote",
      "outputs": [],
      "stateMutability": "nonpayable",
      "type": "function"
    }
  ],
  "bytecode": "0x60806040523480156200001157600080fd5b50620000586040518060400160405280600e81526020017f4a6f657920536f6e737465696e32000000000000000000000000000000000000815250620000a460201b60201c565b6200009e6040518060400160405280600e81526020017f5361726168204d61727368616c32000000000000000000000000000000000000815250620000a460201b60201c565b620002c5565b60026000815480929190620000b99062000212565b919050555060405180606001604052806002548152602001828152602001600081525060008060025481526020019081526020016000206000820151816000015560208201518160010190805190602001906200011892919062000129565b506040820151816002015590505050565b82805462000137906200028f565b90600052602060002090601f0160209004810192826200015b5760008555620001a7565b82601f106200017657805160ff1916838001178555620001a7565b82800160010185558215620001a7579182015b82811115620001a657825182559160200191906001019062000189565b5b509050620001b69190620001ba565b5090565b5b80821115620001d5576000816000905550600101620001bb565b5090565b7f4e487b7100000000000000000000000000000000000000000000000000000000600052601160045260246000fd5b6000819050919050565b60006200021f8262000208565b91507fffffffffffffffffffffffffffffffffffffffffffffffffffffffffffffffff821415620002555762000254620001d9565b5b600182019050919050565b7f4e487b7100000000000000000000000000000000000000000000000000000000600052602260045260246000fd5b60006002820490506001821680620002a857607f821691505b60208210811415620002bf57620002be62000260565b5b50919050565b610a5980620002d56000396000f3fe608060405234801561001057600080fd5b50600436106100575760003560e01c80630121b93f1461005c57806306a49fce146100785780632d35a8a214610097578063a3ec138d146100b5578063abff6e7a146100e5575b600080fd5b610076600480360381019061007191906104c8565b610117565b005b6100806101f1565b60405161008e92919061070e565b60405180910390f35b61009f6103b5565b6040516100ac9190610754565b60405180910390f35b6100cf60048036038101906100ca91906107cd565b6103bb565b6040516100dc9190610815565b60405180910390f35b6100ff60048036038101906100fa91906104c8565b6103db565b60405161010e9392919061087a565b60405180910390f35b600160003373ffffffffffffffffffffffffffffffffffffffff1673ffffffffffffffffffffffffffffffffffffffff16815260200190815260200160002060009054906101000a900460ff161561016e57600080fd5b6000811015801561018d5750600160025461018991906108e7565b8111155b61019657600080fd5b60008082815260200190815260200160002060020160008154809291906101bc9061091b565b9190505550807f1a4020673492e26e6f179a2233651ea64c9893efa9a40870733e72d5103cad8560405160405180910390a250565b606080600060025467ffffffffffffffff81111561021257610211610964565b5b60405190808252806020026020018201604052801561024557816020015b60608152602001906001900390816102305790505b509050600060025467ffffffffffffffff81111561026657610265610964565b5b6040519080825280602002602001820160405280156102945781602001602082028036833780820191505090505b50905060005b6002548110156103a85760008082815260200190815260200160002060010180546102c4906109c2565b80601f01602080910402602001604051908101604052809291908181526020018280546102f0906109c2565b801561033d5780601f106103125761010080835404028352916020019161033d565b820191906000526020600020905b81548152906001019060200180831161032057829003601f168201915b5050505050838281518110610355576103546109f4565b5b602002602001018190525060008082815260200190815260200160002060020154828281518110610389576103886109f4565b5b60200260200101818152505080806103a09061091b565b91505061029a565b5081819350935050509091565b60025481565b60016020528060005260406000206000915054906101000a900460ff1681565b6000602052806000526040600020600091509050806000015490806001018054610404906109c2565b80601f0160208091040260200160405190810160405280929190818152602001828054610430906109c2565b801561047d5780601f106104525761010080835404028352916020019161047d565b820191906000526020600020905b81548152906001019060200180831161046057829003601f168201915b5050505050908060020154905083565b600080fd5b6000819050919050565b6104a581610492565b81146104b057600080fd5b50565b6000813590506104c28161049c565b92915050565b6000602082840312156104de576104dd61048d565b5b60006104ec848285016104b3565b91505092915050565b600081519050919050565b600082825260208201905092915050565b6000819050602082019050919050565b600081519050919050565b600082825260208201905092915050565b60005b8381101561055b578082015181840152602081019050610540565b8381111561056a576000848401525b50505050565b6000601f19601f8301169050919050565b600061058c82610521565b610596818561052c565b93506105a681856020860161053d565b6105af81610570565b840191505092915050565b60006105c68383610581565b905092915050565b6000602082019050919050565b60006105e6826104f5565b6105f08185610500565b93508360208202850161060285610511565b8060005b8581101561063e578484038952815161061f85826105ba565b945061062a836105ce565b925060208a01995050600181019050610606565b50829750879550505050505092915050565b600081519050919050565b600082825260208201905092915050565b6000819050602082019050919050565b61068581610492565b82525050565b6000610697838361067c565b60208301905092915050565b6000602082019050919050565b60006106bb82610650565b6106c5818561065b565b93506106d08361066c565b8060005b838110156107015781516106e8888261068b565b97506106f3836106a3565b9250506001810190506106d4565b5085935050505092915050565b6000604082019050818103600083015261072881856105db565b9050818103602083015261073c81846106b0565b90509392505050565b61074e81610492565b82525050565b60006020820190506107696000830184610745565b92915050565b600073ffffffffffffffffffffffffffffffffffffffff82169050919050565b600061079a8261076f565b9050919050565b6107aa8161078f565b81146107b557600080fd5b50565b6000813590506107c7816107a1565b92915050565b6000602082840312156107e3576107e261048d565b5b60006107f1848285016107b8565b91505092915050565b60008115159050919050565b61080f816107fa565b82525050565b600060208201905061082a6000830184610806565b92915050565b600082825260208201905092915050565b600061084c82610521565b6108568185610830565b935061086681856020860161053d565b61086f81610570565b840191505092915050565b600060608201905061088f6000830186610745565b81810360208301526108a18185610841565b90506108b06040830184610745565b949350505050565b7f4e487b7100000000000000000000000000000000000000000000000000000000600052601160045260246000fd5b60006108f282610492565b91506108fd83610492565b9250828210156109105761090f6108b8565b5b828203905092915050565b600061092682610492565b91507fffffffffffffffffffffffffffffffffffffffffffffffffffffffffffffffff821415610959576109586108b8565b5b600182019050919050565b7f4e487b7100000000000000000000000000000000000000000000000000000000600052604160045260246000fd5b7f4e487b7100000000000000000000000000000000000000000000000000000000600052602260045260246000fd5b600060028204905060018216806109da57607f821691505b602082108114156109ee576109ed610993565b5b50919050565b7f4e487b7100000000000000000000000000000000000000000000000000000000600052603260045260246000fdfea2646970667358221220dbf98a7dcd01cf9a0efb03d42cdcf4216d3c2c5ef109f9af35d5ec1ba038c93f64736f6c634300080b0033",
  "immutableReferences": {},
  "source": "pragma solidity >=0.4.22 <0.9.0;\n\ncontract Vote {\n\n    struct Candidate{\n        uint id;\n        string name;\n        uint voteCount;\n    }\n\n    mapping (uint => Candidate) public candidateLookup;\n    mapping (address => bool) public voters;\n\n    event voterEvent(uint indexed id);\n\n    uint public candidatesCount;\n\n    constructor () {\n        addCandidate(\"Joey Sonstein2\");\n        addCandidate(\"Sarah Marshal2\");\n    }\n\n    function addCandidate (string memory _name) private{\n        candidatesCount++;\n        candidateLookup[candidatesCount] = Candidate(candidatesCount, _name, 0);\n    }\n\n    function getCandidates () external view returns (string[] memory, uint[] memory){\n        string[] memory names = new string[](candidatesCount);\n        uint[] memory voteCounts = new uint[](candidatesCount);\n        for (uint i = 0; i < candidatesCount; i++){\n            names[i]= candidateLookup[i].name;\n            voteCounts[i]= candidateLookup[i].voteCount;\n        }\n        return (names, voteCounts);\n    }\n\n    function vote (uint _candidateId) external {\n        require (!voters[msg.sender]);\n        require (_candidateId >= 0 && _candidateId <= candidatesCount-1);\n        candidateLookup[_candidateId].voteCount++;\n        emit voterEvent(_candidateId);\n        //record voter has voted\n        // voters[msg.sender]= true;\n    }\n    \n}",
  "sourcePath": "/home/texopolis/Code/voteapp/contracts/Vote.sol",
  "compiler": {
    "name": "solc",
    "version": "0.8.11+commit.d7f03943.Emscripten.clang"
  },
  "schemaVersion": "3.4.4",
  "updatedAt": "2022-02-19T22:40:18.460Z",
  "networkType": "ethereum",
  "devdoc": {
    "kind": "dev",
    "methods": {},
    "version": 1
  },
  "userdoc": {
    "kind": "user",
    "methods": {},
    "version": 1
  }
}